{"project/contracts/PrivateMail.sol":{"PrivateMail":{"abi":[{"inputs":[{"internalType":"address","name":"owner","type":"address"}],"name":"AlreadyRegistered","type":"error"},{"inputs":[],"name":"EmptyCiphertext","type":"error"},{"inputs":[],"name":"EmptyPublicKey","type":"error"},{"inputs":[{"internalType":"uint256","name":"messageId","type":"uint256"}],"name":"InvalidMessageId","type":"error"},{"inputs":[{"internalType":"uint256","name":"pageId","type":"uint256"}],"name":"InvalidPageId","type":"error"},{"inputs":[],"name":"InvalidUsername","type":"error"},{"inputs":[],"name":"NotRegistered","type":"error"},{"inputs":[{"internalType":"address","name":"recipient","type":"address"}],"name":"RecipientNotRegistered","type":"error"},{"inputs":[{"internalType":"string","name":"username","type":"string"}],"name":"UsernameTaken","type":"error"},{"inputs":[],"name":"ZeroAddress","type":"error"},{"anonymous":false,"inputs":[{"indexed":true,"internalType":"uint256","name":"messageId","type":"uint256"},{"indexed":true,"internalType":"address","name":"sender","type":"address"},{"indexed":true,"internalType":"address","name":"recipient","type":"address"},{"indexed":false,"internalType":"uint256","name":"timestamp","type":"uint256"},{"indexed":false,"internalType":"bytes32","name":"contentHash","type":"bytes32"}],"name":"MessageSent","type":"event"},{"anonymous":false,"inputs":[{"indexed":true,"internalType":"address","name":"owner","type":"address"},{"indexed":false,"internalType":"bytes","name":"pubKey","type":"bytes"}],"name":"PublicKeyRegistered","type":"event"},{"anonymous":false,"inputs":[{"indexed":true,"internalType":"address","name":"owner","type":"address"},{"indexed":false,"internalType":"string","name":"username","type":"string"}],"name":"UsernameRegistered","type":"event"},{"inputs":[],"name":"CIPHER_TEXT_INLINE_MAX","outputs":[{"internalType":"uint256","name":"","type":"uint256"}],"stateMutability":"view","type":"function"},{"inputs":[],"name":"MESSAGES_PER_PAGE","outputs":[{"internalType":"uint256","name":"","type":"uint256"}],"stateMutability":"view","type":"function"},{"inputs":[],"name":"PREV_PAGE_NONE","outputs":[{"internalType":"uint256","name":"","type":"uint256"}],"stateMutability":"view","type":"function"},{"inputs":[{"internalType":"address","name":"","type":"address"}],"name":"addressToUsername","outputs":[{"internalType":"bytes32","name":"","type":"bytes32"}],"stateMutability":"view","type":"function"},{"inputs":[{"internalType":"address","name":"","type":"address"}],"name":"encryptionPublicKeys","outputs":[{"internalType":"bytes","name":"","type":"bytes"}],"stateMutability":"view","type":"function"},{"inputs":[{"internalType":"string","name":"username","type":"string"}],"name":"getAddressForUsername","outputs":[{"internalType":"address","name":"","type":"address"}],"stateMutability":"view","type":"function"},{"inputs":[{"internalType":"uint256","name":"refId","type":"uint256"}],"name":"getLargeCiphertext","outputs":[{"internalType":"bytes","name":"","type":"bytes"}],"stateMutability":"view","type":"function"},{"inputs":[{"internalType":"uint256","name":"messageId","type":"uint256"}],"name":"getMessage","outputs":[{"components":[{"internalType":"address","name":"sender","type":"address"},{"internalType":"address","name":"recipient","type":"address"},{"internalType":"bytes","name":"ciphertext","type":"bytes"},{"internalType":"uint256","name":"ciphertextRef","type":"uint256"},{"internalType":"uint256","name":"timestamp","type":"uint256"},{"internalType":"bytes32","name":"contentHash","type":"bytes32"}],"internalType":"struct PrivateMail.Message","name":"","type":"tuple"}],"stateMutability":"view","type":"function"},{"inputs":[{"internalType":"uint256","name":"pageId","type":"uint256"}],"name":"getPage","outputs":[{"internalType":"uint256[10]","name":"messageIds","type":"uint256[10]"},{"internalType":"uint8","name":"count","type":"uint8"},{"internalType":"uint256","name":"prevPageIdForRecipient","type":"uint256"}],"stateMutability":"view","type":"function"},{"inputs":[{"internalType":"uint256","name":"pageId","type":"uint256"}],"name":"getPageWithMessages","outputs":[{"internalType":"uint8","name":"count","type":"uint8"},{"internalType":"uint256","name":"prevPageIdForRecipient","type":"uint256"},{"components":[{"internalType":"address","name":"sender","type":"address"},{"internalType":"address","name":"recipient","type":"address"},{"internalType":"bytes","name":"ciphertext","type":"bytes"},{"internalType":"uint256","name":"ciphertextRef","type":"uint256"},{"internalType":"uint256","name":"timestamp","type":"uint256"},{"internalType":"bytes32","name":"contentHash","type":"bytes32"}],"internalType":"struct PrivateMail.Message[10]","name":"pageMessages","type":"tuple[10]"}],"stateMutability":"view","type":"function"},{"inputs":[{"internalType":"address","name":"owner","type":"address"}],"name":"getPublicKey","outputs":[{"internalType":"bytes","name":"","type":"bytes"}],"stateMutability":"view","type":"function"},{"inputs":[{"internalType":"address","name":"recipient","type":"address"}],"name":"getRecipientHeadPageId","outputs":[{"internalType":"uint256","name":"","type":"uint256"}],"stateMutability":"view","type":"function"},{"inputs":[{"internalType":"address","name":"owner","type":"address"}],"name":"getUsernameHash","outputs":[{"internalType":"bytes32","name":"","type":"bytes32"}],"stateMutability":"view","type":"function"},{"inputs":[{"internalType":"address","name":"","type":"address"}],"name":"hasRegisteredKey","outputs":[{"internalType":"bool","name":"","type":"bool"}],"stateMutability":"view","type":"function"},{"inputs":[{"internalType":"address","name":"owner","type":"address"}],"name":"isRegistered","outputs":[{"internalType":"bool","name":"","type":"bool"}],"stateMutability":"view","type":"function"},{"inputs":[{"internalType":"uint256","name":"","type":"uint256"}],"name":"largeCiphertexts","outputs":[{"internalType":"bytes","name":"","type":"bytes"}],"stateMutability":"view","type":"function"},{"inputs":[{"internalType":"uint256","name":"","type":"uint256"}],"name":"messages","outputs":[{"internalType":"address","name":"sender","type":"address"},{"internalType":"address","name":"recipient","type":"address"},{"internalType":"bytes","name":"ciphertext","type":"bytes"},{"internalType":"uint256","name":"ciphertextRef","type":"uint256"},{"internalType":"uint256","name":"timestamp","type":"uint256"},{"internalType":"bytes32","name":"contentHash","type":"bytes32"}],"stateMutability":"view","type":"function"},{"inputs":[],"name":"nextCiphertextRefId","outputs":[{"internalType":"uint256","name":"","type":"uint256"}],"stateMutability":"view","type":"function"},{"inputs":[],"name":"nextMessageId","outputs":[{"internalType":"uint256","name":"","type":"uint256"}],"stateMutability":"view","type":"function"},{"inputs":[],"name":"nextPageId","outputs":[{"internalType":"uint256","name":"","type":"uint256"}],"stateMutability":"view","type":"function"},{"inputs":[{"internalType":"uint256","name":"","type":"uint256"}],"name":"pages","outputs":[{"internalType":"uint8","name":"count","type":"uint8"},{"internalType":"uint256","name":"prevPageIdForRecipient","type":"uint256"}],"stateMutability":"view","type":"function"},{"inputs":[{"internalType":"address","name":"","type":"address"}],"name":"recipientHeadPageId","outputs":[{"internalType":"uint256","name":"","type":"uint256"}],"stateMutability":"view","type":"function"},{"inputs":[{"internalType":"bytes","name":"pubKey","type":"bytes"}],"name":"registerPublicKey","outputs":[],"stateMutability":"nonpayable","type":"function"},{"inputs":[{"internalType":"string","name":"username","type":"string"}],"name":"registerUsername","outputs":[],"stateMutability":"nonpayable","type":"function"},{"inputs":[{"internalType":"address","name":"recipient","type":"address"},{"internalType":"bytes","name":"ciphertext","type":"bytes"},{"internalType":"bytes32","name":"contentHash","type":"bytes32"}],"name":"sendMessage","outputs":[{"internalType":"uint256","name":"messageId","type":"uint256"}],"stateMutability":"nonpayable","type":"function"},{"inputs":[{"internalType":"bytes32","name":"","type":"bytes32"}],"name":"usernameToAddress","outputs":[{"internalType":"address","name":"","type":"address"}],"stateMutability":"view","type":"function"}],"evm":{"bytecode":{"linkReferences":{},"object":"60806040526001805560016002553480156017575f5ffd5b50611878806100255f395ff3fe608060405234801561000f575f5ffd5b5060043610610187575f3560e01c8063778f10a3116100d9578063a0f0438a11610093578063c3c5a5471161006e578063c3c5a547146103f9578063e07a0baa14610424578063ea040c6014610443578063eefbf17e1461046b575f5ffd5b8063a0f0438a146103af578063a1fb277f146103d1578063aba56271146103da575f5ffd5b8063778f10a3146103515780638562359414610358578063857cdbb81461036b57806386f79edb1461037e5780638803d0541461039e5780638a602ce8146103a6575f5ffd5b80632fdf15d511610144578063522cf1e01161011f578063522cf1e01461029c578063570b0257146102c45780635c3e9cc2146102d75780636e6d5d641461031f575f5ffd5b80632fdf15d51461024c57806336a94134146102745780633f4e7d2514610289575f5ffd5b806303aa6fa91461018b578063095a0535146101a75780630d80fefd146101d25780630fb8fa1e146101f7578063137a3c96146102175780632c4ac77014610239575b5f5ffd5b61019460025481565b6040519081526020015b60405180910390f35b6101ba6101b53660046112f4565b610473565b6040516001600160a01b03909116815260200161019e565b6101e56101e0366004611333565b6104a3565b60405161019e96959493929190611378565b61020a610205366004611333565b61056a565b60405161019e91906113c1565b61022a610225366004611333565b610601565b60405161019e939291906113da565b610194610247366004611436565b61069f565b6101ba61025a366004611333565b60096020525f90815260409020546001600160a01b031681565b6102876102823660046112f4565b610a57565b005b61020a610297366004611333565b610b7b565b6101946102aa36600461148c565b6001600160a01b03165f908152600a602052604090205490565b61020a6102d236600461148c565b610c1a565b6103066102e5366004611333565b60046020525f90815260409020600a810154600b9091015460ff9091169082565b6040805160ff909316835260208301919091520161019e565b61034161032d36600461148c565b60086020525f908152604090205460ff1681565b604051901515815260200161019e565b6101945f81565b6102876103663660046112f4565b610c32565b61020a61037936600461148c565b610d14565b61039161038c366004611333565b610d3a565b60405161019e9190611507565b610194600a81565b61019461010081565b6103c26103bd366004611333565b610e57565b60405161019e93929190611519565b61019460015481565b6101946103e836600461148c565b60066020525f908152604090205481565b61034161040736600461148c565b6001600160a01b03165f9081526008602052604090205460ff1690565b61019461043236600461148c565b600a6020525f908152604090205481565b61019461045136600461148c565b6001600160a01b03165f9081526006602052604090205490565b6101945f5481565b5f60095f6104818585610fe5565b815260208101919091526040015f20546001600160a01b031690505b92915050565b60036020525f90815260409020805460018201546002830180546001600160a01b039384169492909316926104d79061157b565b80601f01602080910402602001604051908101604052809291908181526020018280546105039061157b565b801561054e5780601f106105255761010080835404028352916020019161054e565b820191905f5260205f20905b81548152906001019060200180831161053157829003601f168201915b5050505050908060030154908060040154908060050154905086565b60056020525f9081526040902080546105829061157b565b80601f01602080910402602001604051908101604052809291908181526020018280546105ae9061157b565b80156105f95780601f106105d0576101008083540402835291602001916105f9565b820191905f5260205f20905b8154815290600101906020018083116105dc57829003601f168201915b505050505081565b61060961121f565b5f8083158061061a57506001548410155b15610640576040516320a5b2c960e01b8152600481018590526024015b60405180910390fd5b5f8481526004602052604090819020600a80820154600b83015484516101408101958690529394859460ff90931693919291859182845b8154815260200190600101908083116106775750505050509250935093509350509193909250565b5f6001600160a01b0385166106c75760405163d92e233d60e01b815260040160405180910390fd5b6001600160a01b0385165f9081526008602052604090205460ff1661070a5760405163080dc24160e01b81526001600160a01b0386166004820152602401610637565b5f83900361072b57604051631b7c19af60e31b815260040160405180910390fd5b5f80549080610739836115c7565b9091555090505f6101008411610838576040518060c00160405280336001600160a01b03168152602001876001600160a01b0316815260200186868080601f0160208091040260200160405190810160405280939291908181526020018383808284375f92018290525093855250505060208083018290524260408085019190915260609093018790528582526003815290829020835181546001600160a01b03199081166001600160a01b0392831617835592850151600183018054909416911617909155908201516002820190610812908261163f565b50606082015160038201556080820151600482015560a090910151600590910155610918565b60028054905f610847836115c7565b909155505f8181526005602052604090209091506108668587836116fa565b506040805160c0810182523381526001600160a01b038881166020808401918252845180820186525f8082528587019182526060860188905242608087015260a086018a90528881526003909252949020835181549084166001600160a01b0319918216178255915160018201805491909416921691909117909155915190919060028201906108f6908261163f565b50606082015160038201556080820151600482015560a0909101516005909101555b6001600160a01b0386165f9081526006602052604090205480158061095057505f818152600460205260409020600a9081015460ff16145b156109ab57600180545f9182610965836115c7565b909155505f818152600460209081526040808320888155600a8101805460ff19166001179055600b018690556001600160a01b038c168352600690915290205550610a05565b5f818152600460205260409020600a808201548591839160ff169081106109d4576109d46117b4565b0155600a8101805460ff16905f6109ea836117c8565b91906101000a81548160ff021916908360ff16021790555050505b60408051428152602081018690526001600160a01b03891691339186917fadf67e525d1556d0e0a61997ac1891dec92a21ba974328aa422695a91c27b1bf910160405180910390a45050949350505050565b335f9081526008602052604090205460ff16610a865760405163aba4733960e01b815260040160405180910390fd5b5f610a918383610fe5565b5f818152600960205260409020549091506001600160a01b031615610acd578282604051632b4e256760e01b815260040161063792919061180e565b335f908152600a602052604090205415610b0b57335f908152600a602090815260408083205483526009909152902080546001600160a01b03191690555b5f81815260096020908152604080832080546001600160a01b03191633908117909155808452600a9092529182902083905590517f4afe13536e3149cddd8c9a8df1580cd5e909fd13c41e7dfead2e38d1141dad5d90610b6e908690869061180e565b60405180910390a2505050565b5f818152600560205260409020805460609190610b979061157b565b80601f0160208091040260200160405190810160405280929190818152602001828054610bc39061157b565b8015610c0e5780601f10610be557610100808354040283529160200191610c0e565b820191905f5260205f20905b815481529060010190602001808311610bf157829003601f168201915b50505050509050919050565b60076020525f9081526040902080546105829061157b565b33610c505760405163d92e233d60e01b815260040160405180910390fd5b5f819003610c7157604051634f42be3d60e01b815260040160405180910390fd5b335f9081526008602052604090205460ff1615610ca3576040516345ed80e960e01b8152336004820152602401610637565b335f908152600760205260409020610cbc8284836116fa565b50335f8181526008602052604090819020805460ff19166001179055517fb3ec32f104accdf61583b5b94e7b80414c5dc5845ffc42e00f5f19775a358a0a90610d08908590859061180e565b60405180910390a25050565b6001600160a01b0381165f908152600760205260409020805460609190610b979061157b565b610d4261123e565b5f548210610d66576040516358a42e2360e11b815260048101839052602401610637565b5f82815260036020908152604091829020825160c08101845281546001600160a01b039081168252600183015416928101929092526002810180549293919291840191610db29061157b565b80601f0160208091040260200160405190810160405280929190818152602001828054610dde9061157b565b8015610e295780601f10610e0057610100808354040283529160200191610e29565b820191905f5260205f20905b815481529060010190602001808311610e0c57829003601f168201915b5050505050815260200160038201548152602001600482015481526020016005820154815250509050919050565b5f5f610e61611281565b831580610e7057506001548410155b15610e91576040516320a5b2c960e01b815260048101859052602401610637565b5f848152600460205260408120600a810154600b82015460ff90911695509350905b8460ff16811015610fdc5760035f8383600a8110610ed357610ed36117b4565b0154815260208082019290925260409081015f20815160c08101835281546001600160a01b039081168252600183015416938101939093526002810180549192840191610f1f9061157b565b80601f0160208091040260200160405190810160405280929190818152602001828054610f4b9061157b565b8015610f965780601f10610f6d57610100808354040283529160200191610f96565b820191905f5260205f20905b815481529060010190602001808311610f7957829003601f168201915b5050505050815260200160038201548152602001600482015481526020016005820154815250508382600a8110610fcf57610fcf6117b4565b6020020152600101610eb3565b50509193909250565b5f5f83838080601f0160208091040260200160405190810160405280939291908181526020018383808284375f92019190915250508251929350506003909110905080611033575060208151115b1561105157604051630a1de65160e31b815260040160405180910390fd5b5f815167ffffffffffffffff81111561106c5761106c6115df565b6040519080825280601f01601f191660200182016040528015611096576020820181803683370190505b5090505f5b825181101561120e575f8382815181106110b7576110b76117b4565b01602001516001600160f81b0319169050604160f81b81108015906110ea5750602d60f91b6001600160f81b0319821611155b1561112e576110fe60f882901c6020611829565b60f81b838381518110611113576111136117b4565b60200101906001600160f81b03191690815f1a905350611205565b606160f81b6001600160f81b031982161080159061115a5750603d60f91b6001600160f81b0319821611155b8061118c5750600360fc1b6001600160f81b031982161080159061118c5750603960f81b6001600160f81b0319821611155b806111a45750601760f91b6001600160f81b03198216145b806111bc5750602d60f81b6001600160f81b03198216145b806111d45750605f60f81b6001600160f81b03198216145b156111ec5780838381518110611113576111136117b4565b604051630a1de65160e31b815260040160405180910390fd5b5060010161109b565b508051602090910120949350505050565b604051806101400160405280600a906020820280368337509192915050565b6040518060c001604052805f6001600160a01b031681526020015f6001600160a01b03168152602001606081526020015f81526020015f81526020015f81525090565b604051806101400160405280600a905b61129961123e565b8152602001906001900390816112915790505090565b5f5f83601f8401126112bf575f5ffd5b50813567ffffffffffffffff8111156112d6575f5ffd5b6020830191508360208285010111156112ed575f5ffd5b9250929050565b5f5f60208385031215611305575f5ffd5b823567ffffffffffffffff81111561131b575f5ffd5b611327858286016112af565b90969095509350505050565b5f60208284031215611343575f5ffd5b5035919050565b5f81518084528060208401602086015e5f602082860101526020601f19601f83011685010191505092915050565b6001600160a01b0387811682528616602082015260c0604082018190525f906113a39083018761134a565b606083019590955250608081019290925260a0909101529392505050565b602081525f6113d3602083018461134a565b9392505050565b610180810181855f5b600a8110156114025781518352602092830192909101906001016113e3565b50505060ff939093166101408201526101600152919050565b80356001600160a01b0381168114611431575f5ffd5b919050565b5f5f5f5f60608587031215611449575f5ffd5b6114528561141b565b9350602085013567ffffffffffffffff81111561146d575f5ffd5b611479878288016112af565b9598909750949560400135949350505050565b5f6020828403121561149c575f5ffd5b6113d38261141b565b60018060a01b03815116825260018060a01b0360208201511660208301525f604082015160c060408501526114dd60c085018261134a565b9050606083015160608501526080830151608085015260a083015160a08501528091505092915050565b602081525f6113d360208301846114a5565b60ff84168152602081018390526060604082018190525f906101a0830190830184835b600a81101561156e57605f198685030183526115598483516114a5565b9350602092830192919091019060010161153c565b5091979650505050505050565b600181811c9082168061158f57607f821691505b6020821081036115ad57634e487b7160e01b5f52602260045260245ffd5b50919050565b634e487b7160e01b5f52601160045260245ffd5b5f600182016115d8576115d86115b3565b5060010190565b634e487b7160e01b5f52604160045260245ffd5b601f82111561163a57805f5260205f20601f840160051c810160208510156116185750805b601f840160051c820191505b81811015611637575f8155600101611624565b50505b505050565b815167ffffffffffffffff811115611659576116596115df565b61166d81611667845461157b565b846115f3565b6020601f82116001811461169f575f83156116885750848201515b5f19600385901b1c1916600184901b178455611637565b5f84815260208120601f198516915b828110156116ce57878501518255602094850194600190920191016116ae565b50848210156116eb57868401515f19600387901b60f8161c191681555b50505050600190811b01905550565b67ffffffffffffffff831115611712576117126115df565b61172683611720835461157b565b836115f3565b5f601f841160018114611757575f85156117405750838201355b5f19600387901b1c1916600186901b178355611637565b5f83815260208120601f198716915b828110156117865786850135825560209485019460019092019101611766565b50868210156117a2575f1960f88860031b161c19848701351681555b505060018560011b0183555050505050565b634e487b7160e01b5f52603260045260245ffd5b5f60ff821660ff81036117dd576117dd6115b3565b60010192915050565b81835281816020850137505f828201602090810191909152601f909101601f19169091010190565b602081525f6118216020830184866117e6565b949350505050565b60ff818116838216019081111561049d5761049d6115b356fea2646970667358221220ee9a7205c7d1a73605f274bc8adbc4589ef406809ec9769d796b0443136f3a8564736f6c634300081c0033","opcodes":"PUSH1 0x80 PUSH1 0x40 MSTORE PUSH1 0x1 DUP1 SSTORE PUSH1 0x1 PUSH1 0x2 SSTORE CALLVALUE DUP1 ISZERO PUSH1 0x17 JUMPI PUSH0 PUSH0 REVERT JUMPDEST POP PUSH2 0x1878 DUP1 PUSH2 0x25 PUSH0 CODECOPY PUSH0 RETURN INVALID PUSH1 0x80 PUSH1 0x40 MSTORE CALLVALUE DUP1 ISZERO PUSH2 0xF JUMPI PUSH0 PUSH0 REVERT JUMPDEST POP PUSH1 0x4 CALLDATASIZE LT PUSH2 0x187 JUMPI PUSH0 CALLDATALOAD PUSH1 0xE0 SHR DUP1 PUSH4 0x778F10A3 GT PUSH2 0xD9 JUMPI DUP1 PUSH4 0xA0F0438A GT PUSH2 0x93 JUMPI DUP1 PUSH4 0xC3C5A547 GT PUSH2 0x6E JUMPI DUP1 PUSH4 0xC3C5A547 EQ PUSH2 0x3F9 JUMPI DUP1 PUSH4 0xE07A0BAA EQ PUSH2 0x424 JUMPI DUP1 PUSH4 0xEA040C60 EQ PUSH2 0x443 JUMPI DUP1 PUSH4 0xEEFBF17E EQ PUSH2 0x46B JUMPI PUSH0 PUSH0 REVERT JUMPDEST DUP1 PUSH4 0xA0F0438A EQ PUSH2 0x3AF JUMPI DUP1 PUSH4 0xA1FB277F EQ PUSH2 0x3D1 JUMPI DUP1 PUSH4 0xABA56271 EQ PUSH2 0x3DA JUMPI PUSH0 PUSH0 REVERT JUMPDEST DUP1 PUSH4 0x778F10A3 EQ PUSH2 0x351 JUMPI DUP1 PUSH4 0x85623594 EQ PUSH2 0x358 JUMPI DUP1 PUSH4 0x857CDBB8 EQ PUSH2 0x36B JUMPI DUP1 PUSH4 0x86F79EDB EQ PUSH2 0x37E JUMPI DUP1 PUSH4 0x8803D054 EQ PUSH2 0x39E JUMPI DUP1 PUSH4 0x8A602CE8 EQ PUSH2 0x3A6 JUMPI PUSH0 PUSH0 REVERT JUMPDEST DUP1 PUSH4 0x2FDF15D5 GT PUSH2 0x144 JUMPI DUP1 PUSH4 0x522CF1E0 GT PUSH2 0x11F JUMPI DUP1 PUSH4 0x522CF1E0 EQ PUSH2 0x29C JUMPI DUP1 PUSH4 0x570B0257 EQ PUSH2 0x2C4 JUMPI DUP1 PUSH4 0x5C3E9CC2 EQ PUSH2 0x2D7 JUMPI DUP1 PUSH4 0x6E6D5D64 EQ PUSH2 0x31F JUMPI PUSH0 PUSH0 REVERT JUMPDEST DUP1 PUSH4 0x2FDF15D5 EQ PUSH2 0x24C JUMPI DUP1 PUSH4 0x36A94134 EQ PUSH2 0x274 JUMPI DUP1 PUSH4 0x3F4E7D25 EQ PUSH2 0x289 JUMPI PUSH0 PUSH0 REVERT JUMPDEST DUP1 PUSH4 0x3AA6FA9 EQ PUSH2 0x18B JUMPI DUP1 PUSH4 0x95A0535 EQ PUSH2 0x1A7 JUMPI DUP1 PUSH4 0xD80FEFD EQ PUSH2 0x1D2 JUMPI DUP1 PUSH4 0xFB8FA1E EQ PUSH2 0x1F7 JUMPI DUP1 PUSH4 0x137A3C96 EQ PUSH2 0x217 JUMPI DUP1 PUSH4 0x2C4AC770 EQ PUSH2 0x239 JUMPI JUMPDEST PUSH0 PUSH0 REVERT JUMPDEST PUSH2 0x194 PUSH1 0x2 SLOAD DUP2 JUMP JUMPDEST PUSH1 0x40 MLOAD SWAP1 DUP2 MSTORE PUSH1 0x20 ADD JUMPDEST PUSH1 0x40 MLOAD DUP1 SWAP2 SUB SWAP1 RETURN JUMPDEST PUSH2 0x1BA PUSH2 0x1B5 CALLDATASIZE PUSH1 0x4 PUSH2 0x12F4 JUMP JUMPDEST PUSH2 0x473 JUMP JUMPDEST PUSH1 0x40 MLOAD PUSH1 0x1 PUSH1 0x1 PUSH1 0xA0 SHL SUB SWAP1 SWAP2 AND DUP2 MSTORE PUSH1 0x20 ADD PUSH2 0x19E JUMP JUMPDEST PUSH2 0x1E5 PUSH2 0x1E0 CALLDATASIZE PUSH1 0x4 PUSH2 0x1333 JUMP JUMPDEST PUSH2 0x4A3 JUMP JUMPDEST PUSH1 0x40 MLOAD PUSH2 0x19E SWAP7 SWAP6 SWAP5 SWAP4 SWAP3 SWAP2 SWAP1 PUSH2 0x1378 JUMP JUMPDEST PUSH2 0x20A PUSH2 0x205 CALLDATASIZE PUSH1 0x4 PUSH2 0x1333 JUMP JUMPDEST PUSH2 0x56A JUMP JUMPDEST PUSH1 0x40 MLOAD PUSH2 0x19E SWAP2 SWAP1 PUSH2 0x13C1 JUMP JUMPDEST PUSH2 0x22A PUSH2 0x225 CALLDATASIZE PUSH1 0x4 PUSH2 0x1333 JUMP JUMPDEST PUSH2 0x601 JUMP JUMPDEST PUSH1 0x40 MLOAD PUSH2 0x19E SWAP4 SWAP3 SWAP2 SWAP1 PUSH2 0x13DA JUMP JUMPDEST PUSH2 0x194 PUSH2 0x247 CALLDATASIZE PUSH1 0x4 PUSH2 0x1436 JUMP JUMPDEST PUSH2 0x69F JUMP JUMPDEST PUSH2 0x1BA PUSH2 0x25A CALLDATASIZE PUSH1 0x4 PUSH2 0x1333 JUMP JUMPDEST PUSH1 0x9 PUSH1 0x20 MSTORE PUSH0 SWAP1 DUP2 MSTORE PUSH1 0x40 SWAP1 KECCAK256 SLOAD PUSH1 0x1 PUSH1 0x1 PUSH1 0xA0 SHL SUB AND DUP2 JUMP JUMPDEST PUSH2 0x287 PUSH2 0x282 CALLDATASIZE PUSH1 0x4 PUSH2 0x12F4 JUMP JUMPDEST PUSH2 0xA57 JUMP JUMPDEST STOP JUMPDEST PUSH2 0x20A PUSH2 0x297 CALLDATASIZE PUSH1 0x4 PUSH2 0x1333 JUMP JUMPDEST PUSH2 0xB7B JUMP JUMPDEST PUSH2 0x194 PUSH2 0x2AA CALLDATASIZE PUSH1 0x4 PUSH2 0x148C JUMP JUMPDEST PUSH1 0x1 PUSH1 0x1 PUSH1 0xA0 SHL SUB AND PUSH0 SWAP1 DUP2 MSTORE PUSH1 0xA PUSH1 0x20 MSTORE PUSH1 0x40 SWAP1 KECCAK256 SLOAD SWAP1 JUMP JUMPDEST PUSH2 0x20A PUSH2 0x2D2 CALLDATASIZE PUSH1 0x4 PUSH2 0x148C JUMP JUMPDEST PUSH2 0xC1A JUMP JUMPDEST PUSH2 0x306 PUSH2 0x2E5 CALLDATASIZE PUSH1 0x4 PUSH2 0x1333 JUMP JUMPDEST PUSH1 0x4 PUSH1 0x20 MSTORE PUSH0 SWAP1 DUP2 MSTORE PUSH1 0x40 SWAP1 KECCAK256 PUSH1 0xA DUP2 ADD SLOAD PUSH1 0xB SWAP1 SWAP2 ADD SLOAD PUSH1 0xFF SWAP1 SWAP2 AND SWAP1 DUP3 JUMP JUMPDEST PUSH1 0x40 DUP1 MLOAD PUSH1 0xFF SWAP1 SWAP4 AND DUP4 MSTORE PUSH1 0x20 DUP4 ADD SWAP2 SWAP1 SWAP2 MSTORE ADD PUSH2 0x19E JUMP JUMPDEST PUSH2 0x341 PUSH2 0x32D CALLDATASIZE PUSH1 0x4 PUSH2 0x148C JUMP JUMPDEST PUSH1 0x8 PUSH1 0x20 MSTORE PUSH0 SWAP1 DUP2 MSTORE PUSH1 0x40 SWAP1 KECCAK256 SLOAD PUSH1 0xFF AND DUP2 JUMP JUMPDEST PUSH1 0x40 MLOAD SWAP1 ISZERO ISZERO DUP2 MSTORE PUSH1 0x20 ADD PUSH2 0x19E JUMP JUMPDEST PUSH2 0x194 PUSH0 DUP2 JUMP JUMPDEST PUSH2 0x287 PUSH2 0x366 CALLDATASIZE PUSH1 0x4 PUSH2 0x12F4 JUMP JUMPDEST PUSH2 0xC32 JUMP JUMPDEST PUSH2 0x20A PUSH2 0x379 CALLDATASIZE PUSH1 0x4 PUSH2 0x148C JUMP JUMPDEST PUSH2 0xD14 JUMP JUMPDEST PUSH2 0x391 PUSH2 0x38C CALLDATASIZE PUSH1 0x4 PUSH2 0x1333 JUMP JUMPDEST PUSH2 0xD3A JUMP JUMPDEST PUSH1 0x40 MLOAD PUSH2 0x19E SWAP2 SWAP1 PUSH2 0x1507 JUMP JUMPDEST PUSH2 0x194 PUSH1 0xA DUP2 JUMP JUMPDEST PUSH2 0x194 PUSH2 0x100 DUP2 JUMP JUMPDEST PUSH2 0x3C2 PUSH2 0x3BD CALLDATASIZE PUSH1 0x4 PUSH2 0x1333 JUMP JUMPDEST PUSH2 0xE57 JUMP JUMPDEST PUSH1 0x40 MLOAD PUSH2 0x19E SWAP4 SWAP3 SWAP2 SWAP1 PUSH2 0x1519 JUMP JUMPDEST PUSH2 0x194 PUSH1 0x1 SLOAD DUP2 JUMP JUMPDEST PUSH2 0x194 PUSH2 0x3E8 CALLDATASIZE PUSH1 0x4 PUSH2 0x148C JUMP JUMPDEST PUSH1 0x6 PUSH1 0x20 MSTORE PUSH0 SWAP1 DUP2 MSTORE PUSH1 0x40 SWAP1 KECCAK256 SLOAD DUP2 JUMP JUMPDEST PUSH2 0x341 PUSH2 0x407 CALLDATASIZE PUSH1 0x4 PUSH2 0x148C JUMP JUMPDEST PUSH1 0x1 PUSH1 0x1 PUSH1 0xA0 SHL SUB AND PUSH0 SWAP1 DUP2 MSTORE PUSH1 0x8 PUSH1 0x20 MSTORE PUSH1 0x40 SWAP1 KECCAK256 SLOAD PUSH1 0xFF AND SWAP1 JUMP JUMPDEST PUSH2 0x194 PUSH2 0x432 CALLDATASIZE PUSH1 0x4 PUSH2 0x148C JUMP JUMPDEST PUSH1 0xA PUSH1 0x20 MSTORE PUSH0 SWAP1 DUP2 MSTORE PUSH1 0x40 SWAP1 KECCAK256 SLOAD DUP2 JUMP JUMPDEST PUSH2 0x194 PUSH2 0x451 CALLDATASIZE PUSH1 0x4 PUSH2 0x148C JUMP JUMPDEST PUSH1 0x1 PUSH1 0x1 PUSH1 0xA0 SHL SUB AND PUSH0 SWAP1 DUP2 MSTORE PUSH1 0x6 PUSH1 0x20 MSTORE PUSH1 0x40 SWAP1 KECCAK256 SLOAD SWAP1 JUMP JUMPDEST PUSH2 0x194 PUSH0 SLOAD DUP2 JUMP JUMPDEST PUSH0 PUSH1 0x9 PUSH0 PUSH2 0x481 DUP6 DUP6 PUSH2 0xFE5 JUMP JUMPDEST DUP2 MSTORE PUSH1 0x20 DUP2 ADD SWAP2 SWAP1 SWAP2 MSTORE PUSH1 0x40 ADD PUSH0 KECCAK256 SLOAD PUSH1 0x1 PUSH1 0x1 PUSH1 0xA0 SHL SUB AND SWAP1 POP JUMPDEST SWAP3 SWAP2 POP POP JUMP JUMPDEST PUSH1 0x3 PUSH1 0x20 MSTORE PUSH0 SWAP1 DUP2 MSTORE PUSH1 0x40 SWAP1 KECCAK256 DUP1 SLOAD PUSH1 0x1 DUP3 ADD SLOAD PUSH1 0x2 DUP4 ADD DUP1 SLOAD PUSH1 0x1 PUSH1 0x1 PUSH1 0xA0 SHL SUB SWAP4 DUP5 AND SWAP5 SWAP3 SWAP1 SWAP4 AND SWAP3 PUSH2 0x4D7 SWAP1 PUSH2 0x157B JUMP JUMPDEST DUP1 PUSH1 0x1F ADD PUSH1 0x20 DUP1 SWAP2 DIV MUL PUSH1 0x20 ADD PUSH1 0x40 MLOAD SWAP1 DUP2 ADD PUSH1 0x40 MSTORE DUP1 SWAP3 SWAP2 SWAP1 DUP2 DUP2 MSTORE PUSH1 0x20 ADD DUP3 DUP1 SLOAD PUSH2 0x503 SWAP1 PUSH2 0x157B JUMP JUMPDEST DUP1 ISZERO PUSH2 0x54E JUMPI DUP1 PUSH1 0x1F LT PUSH2 0x525 JUMPI PUSH2 0x100 DUP1 DUP4 SLOAD DIV MUL DUP4 MSTORE SWAP2 PUSH1 0x20 ADD SWAP2 PUSH2 0x54E JUMP JUMPDEST DUP3 ADD SWAP2 SWAP1 PUSH0 MSTORE PUSH1 0x20 PUSH0 KECCAK256 SWAP1 JUMPDEST DUP2 SLOAD DUP2 MSTORE SWAP1 PUSH1 0x1 ADD SWAP1 PUSH1 0x20 ADD DUP1 DUP4 GT PUSH2 0x531 JUMPI DUP3 SWAP1 SUB PUSH1 0x1F AND DUP3 ADD SWAP2 JUMPDEST POP POP POP POP POP SWAP1 DUP1 PUSH1 0x3 ADD SLOAD SWAP1 DUP1 PUSH1 0x4 ADD SLOAD SWAP1 DUP1 PUSH1 0x5 ADD SLOAD SWAP1 POP DUP7 JUMP JUMPDEST PUSH1 0x5 PUSH1 0x20 MSTORE PUSH0 SWAP1 DUP2 MSTORE PUSH1 0x40 SWAP1 KECCAK256 DUP1 SLOAD PUSH2 0x582 SWAP1 PUSH2 0x157B JUMP JUMPDEST DUP1 PUSH1 0x1F ADD PUSH1 0x20 DUP1 SWAP2 DIV MUL PUSH1 0x20 ADD PUSH1 0x40 MLOAD SWAP1 DUP2 ADD PUSH1 0x40 MSTORE DUP1 SWAP3 SWAP2 SWAP1 DUP2 DUP2 MSTORE PUSH1 0x20 ADD DUP3 DUP1 SLOAD PUSH2 0x5AE SWAP1 PUSH2 0x157B JUMP JUMPDEST DUP1 ISZERO PUSH2 0x5F9 JUMPI DUP1 PUSH1 0x1F LT PUSH2 0x5D0 JUMPI PUSH2 0x100 DUP1 DUP4 SLOAD DIV MUL DUP4 MSTORE SWAP2 PUSH1 0x20 ADD SWAP2 PUSH2 0x5F9 JUMP JUMPDEST DUP3 ADD SWAP2 SWAP1 PUSH0 MSTORE PUSH1 0x20 PUSH0 KECCAK256 SWAP1 JUMPDEST DUP2 SLOAD DUP2 MSTORE SWAP1 PUSH1 0x1 ADD SWAP1 PUSH1 0x20 ADD DUP1 DUP4 GT PUSH2 0x5DC JUMPI DUP3 SWAP1 SUB PUSH1 0x1F AND DUP3 ADD SWAP2 JUMPDEST POP POP POP POP POP DUP2 JUMP JUMPDEST PUSH2 0x609 PUSH2 0x121F JUMP JUMPDEST PUSH0 DUP1 DUP4 ISZERO DUP1 PUSH2 0x61A JUMPI POP PUSH1 0x1 SLOAD DUP5 LT ISZERO JUMPDEST ISZERO PUSH2 0x640 JUMPI PUSH1 0x40 MLOAD PUSH4 0x20A5B2C9 PUSH1 0xE0 SHL DUP2 MSTORE PUSH1 0x4 DUP2 ADD DUP6 SWAP1 MSTORE PUSH1 0x24 ADD JUMPDEST PUSH1 0x40 MLOAD DUP1 SWAP2 SUB SWAP1 REVERT JUMPDEST PUSH0 DUP5 DUP2 MSTORE PUSH1 0x4 PUSH1 0x20 MSTORE PUSH1 0x40 SWAP1 DUP2 SWAP1 KECCAK256 PUSH1 0xA DUP1 DUP3 ADD SLOAD PUSH1 0xB DUP4 ADD SLOAD DUP5 MLOAD PUSH2 0x140 DUP2 ADD SWAP6 DUP7 SWAP1 MSTORE SWAP4 SWAP5 DUP6 SWAP5 PUSH1 0xFF SWAP1 SWAP4 AND SWAP4 SWAP2 SWAP3 SWAP2 DUP6 SWAP2 DUP3 DUP5 JUMPDEST DUP2 SLOAD DUP2 MSTORE PUSH1 0x20 ADD SWAP1 PUSH1 0x1 ADD SWAP1 DUP1 DUP4 GT PUSH2 0x677 JUMPI POP POP POP POP POP SWAP3 POP SWAP4 POP SWAP4 POP SWAP4 POP POP SWAP2 SWAP4 SWAP1 SWAP3 POP JUMP JUMPDEST PUSH0 PUSH1 0x1 PUSH1 0x1 PUSH1 0xA0 SHL SUB DUP6 AND PUSH2 0x6C7 JUMPI PUSH1 0x40 MLOAD PUSH4 0xD92E233D PUSH1 0xE0 SHL DUP2 MSTORE PUSH1 0x4 ADD PUSH1 0x40 MLOAD DUP1 SWAP2 SUB SWAP1 REVERT JUMPDEST PUSH1 0x1 PUSH1 0x1 PUSH1 0xA0 SHL SUB DUP6 AND PUSH0 SWAP1 DUP2 MSTORE PUSH1 0x8 PUSH1 0x20 MSTORE PUSH1 0x40 SWAP1 KECCAK256 SLOAD PUSH1 0xFF AND PUSH2 0x70A JUMPI PUSH1 0x40 MLOAD PUSH4 0x80DC241 PUSH1 0xE0 SHL DUP2 MSTORE PUSH1 0x1 PUSH1 0x1 PUSH1 0xA0 SHL SUB DUP7 AND PUSH1 0x4 DUP3 ADD MSTORE PUSH1 0x24 ADD PUSH2 0x637 JUMP JUMPDEST PUSH0 DUP4 SWAP1 SUB PUSH2 0x72B JUMPI PUSH1 0x40 MLOAD PUSH4 0x1B7C19AF PUSH1 0xE3 SHL DUP2 MSTORE PUSH1 0x4 ADD PUSH1 0x40 MLOAD DUP1 SWAP2 SUB SWAP1 REVERT JUMPDEST PUSH0 DUP1 SLOAD SWAP1 DUP1 PUSH2 0x739 DUP4 PUSH2 0x15C7 JUMP JUMPDEST SWAP1 SWAP2 SSTORE POP SWAP1 POP PUSH0 PUSH2 0x100 DUP5 GT PUSH2 0x838 JUMPI PUSH1 0x40 MLOAD DUP1 PUSH1 0xC0 ADD PUSH1 0x40 MSTORE DUP1 CALLER PUSH1 0x1 PUSH1 0x1 PUSH1 0xA0 SHL SUB AND DUP2 MSTORE PUSH1 0x20 ADD DUP8 PUSH1 0x1 PUSH1 0x1 PUSH1 0xA0 SHL SUB AND DUP2 MSTORE PUSH1 0x20 ADD DUP7 DUP7 DUP1 DUP1 PUSH1 0x1F ADD PUSH1 0x20 DUP1 SWAP2 DIV MUL PUSH1 0x20 ADD PUSH1 0x40 MLOAD SWAP1 DUP2 ADD PUSH1 0x40 MSTORE DUP1 SWAP4 SWAP3 SWAP2 SWAP1 DUP2 DUP2 MSTORE PUSH1 0x20 ADD DUP4 DUP4 DUP1 DUP3 DUP5 CALLDATACOPY PUSH0 SWAP3 ADD DUP3 SWAP1 MSTORE POP SWAP4 DUP6 MSTORE POP POP POP PUSH1 0x20 DUP1 DUP4 ADD DUP3 SWAP1 MSTORE TIMESTAMP PUSH1 0x40 DUP1 DUP6 ADD SWAP2 SWAP1 SWAP2 MSTORE PUSH1 0x60 SWAP1 SWAP4 ADD DUP8 SWAP1 MSTORE DUP6 DUP3 MSTORE PUSH1 0x3 DUP2 MSTORE SWAP1 DUP3 SWAP1 KECCAK256 DUP4 MLOAD DUP2 SLOAD PUSH1 0x1 PUSH1 0x1 PUSH1 0xA0 SHL SUB NOT SWAP1 DUP2 AND PUSH1 0x1 PUSH1 0x1 PUSH1 0xA0 SHL SUB SWAP3 DUP4 AND OR DUP4 SSTORE SWAP3 DUP6 ADD MLOAD PUSH1 0x1 DUP4 ADD DUP1 SLOAD SWAP1 SWAP5 AND SWAP2 AND OR SWAP1 SWAP2 SSTORE SWAP1 DUP3 ADD MLOAD PUSH1 0x2 DUP3 ADD SWAP1 PUSH2 0x812 SWAP1 DUP3 PUSH2 0x163F JUMP JUMPDEST POP PUSH1 0x60 DUP3 ADD MLOAD PUSH1 0x3 DUP3 ADD SSTORE PUSH1 0x80 DUP3 ADD MLOAD PUSH1 0x4 DUP3 ADD SSTORE PUSH1 0xA0 SWAP1 SWAP2 ADD MLOAD PUSH1 0x5 SWAP1 SWAP2 ADD SSTORE PUSH2 0x918 JUMP JUMPDEST PUSH1 0x2 DUP1 SLOAD SWAP1 PUSH0 PUSH2 0x847 DUP4 PUSH2 0x15C7 JUMP JUMPDEST SWAP1 SWAP2 SSTORE POP PUSH0 DUP2 DUP2 MSTORE PUSH1 0x5 PUSH1 0x20 MSTORE PUSH1 0x40 SWAP1 KECCAK256 SWAP1 SWAP2 POP PUSH2 0x866 DUP6 DUP8 DUP4 PUSH2 0x16FA JUMP JUMPDEST POP PUSH1 0x40 DUP1 MLOAD PUSH1 0xC0 DUP2 ADD DUP3 MSTORE CALLER DUP2 MSTORE PUSH1 0x1 PUSH1 0x1 PUSH1 0xA0 SHL SUB DUP9 DUP2 AND PUSH1 0x20 DUP1 DUP5 ADD SWAP2 DUP3 MSTORE DUP5 MLOAD DUP1 DUP3 ADD DUP7 MSTORE PUSH0 DUP1 DUP3 MSTORE DUP6 DUP8 ADD SWAP2 DUP3 MSTORE PUSH1 0x60 DUP7 ADD DUP9 SWAP1 MSTORE TIMESTAMP PUSH1 0x80 DUP8 ADD MSTORE PUSH1 0xA0 DUP7 ADD DUP11 SWAP1 MSTORE DUP9 DUP2 MSTORE PUSH1 0x3 SWAP1 SWAP3 MSTORE SWAP5 SWAP1 KECCAK256 DUP4 MLOAD DUP2 SLOAD SWAP1 DUP5 AND PUSH1 0x1 PUSH1 0x1 PUSH1 0xA0 SHL SUB NOT SWAP2 DUP3 AND OR DUP3 SSTORE SWAP2 MLOAD PUSH1 0x1 DUP3 ADD DUP1 SLOAD SWAP2 SWAP1 SWAP5 AND SWAP3 AND SWAP2 SWAP1 SWAP2 OR SWAP1 SWAP2 SSTORE SWAP2 MLOAD SWAP1 SWAP2 SWAP1 PUSH1 0x2 DUP3 ADD SWAP1 PUSH2 0x8F6 SWAP1 DUP3 PUSH2 0x163F JUMP JUMPDEST POP PUSH1 0x60 DUP3 ADD MLOAD PUSH1 0x3 DUP3 ADD SSTORE PUSH1 0x80 DUP3 ADD MLOAD PUSH1 0x4 DUP3 ADD SSTORE PUSH1 0xA0 SWAP1 SWAP2 ADD MLOAD PUSH1 0x5 SWAP1 SWAP2 ADD SSTORE JUMPDEST PUSH1 0x1 PUSH1 0x1 PUSH1 0xA0 SHL SUB DUP7 AND PUSH0 SWAP1 DUP2 MSTORE PUSH1 0x6 PUSH1 0x20 MSTORE PUSH1 0x40 SWAP1 KECCAK256 SLOAD DUP1 ISZERO DUP1 PUSH2 0x950 JUMPI POP PUSH0 DUP2 DUP2 MSTORE PUSH1 0x4 PUSH1 0x20 MSTORE PUSH1 0x40 SWAP1 KECCAK256 PUSH1 0xA SWAP1 DUP2 ADD SLOAD PUSH1 0xFF AND EQ JUMPDEST ISZERO PUSH2 0x9AB JUMPI PUSH1 0x1 DUP1 SLOAD PUSH0 SWAP2 DUP3 PUSH2 0x965 DUP4 PUSH2 0x15C7 JUMP JUMPDEST SWAP1 SWAP2 SSTORE POP PUSH0 DUP2 DUP2 MSTORE PUSH1 0x4 PUSH1 0x20 SWAP1 DUP2 MSTORE PUSH1 0x40 DUP1 DUP4 KECCAK256 DUP9 DUP2 SSTORE PUSH1 0xA DUP2 ADD DUP1 SLOAD PUSH1 0xFF NOT AND PUSH1 0x1 OR SWAP1 SSTORE PUSH1 0xB ADD DUP7 SWAP1 SSTORE PUSH1 0x1 PUSH1 0x1 PUSH1 0xA0 SHL SUB DUP13 AND DUP4 MSTORE PUSH1 0x6 SWAP1 SWAP2 MSTORE SWAP1 KECCAK256 SSTORE POP PUSH2 0xA05 JUMP JUMPDEST PUSH0 DUP2 DUP2 MSTORE PUSH1 0x4 PUSH1 0x20 MSTORE PUSH1 0x40 SWAP1 KECCAK256 PUSH1 0xA DUP1 DUP3 ADD SLOAD DUP6 SWAP2 DUP4 SWAP2 PUSH1 0xFF AND SWAP1 DUP2 LT PUSH2 0x9D4 JUMPI PUSH2 0x9D4 PUSH2 0x17B4 JUMP JUMPDEST ADD SSTORE PUSH1 0xA DUP2 ADD DUP1 SLOAD PUSH1 0xFF AND SWAP1 PUSH0 PUSH2 0x9EA DUP4 PUSH2 0x17C8 JUMP JUMPDEST SWAP2 SWAP1 PUSH2 0x100 EXP DUP2 SLOAD DUP2 PUSH1 0xFF MUL NOT AND SWAP1 DUP4 PUSH1 0xFF AND MUL OR SWAP1 SSTORE POP POP POP JUMPDEST PUSH1 0x40 DUP1 MLOAD TIMESTAMP DUP2 MSTORE PUSH1 0x20 DUP2 ADD DUP7 SWAP1 MSTORE PUSH1 0x1 PUSH1 0x1 PUSH1 0xA0 SHL SUB DUP10 AND SWAP2 CALLER SWAP2 DUP7 SWAP2 PUSH32 0xADF67E525D1556D0E0A61997AC1891DEC92A21BA974328AA422695A91C27B1BF SWAP2 ADD PUSH1 0x40 MLOAD DUP1 SWAP2 SUB SWAP1 LOG4 POP POP SWAP5 SWAP4 POP POP POP POP JUMP JUMPDEST CALLER PUSH0 SWAP1 DUP2 MSTORE PUSH1 0x8 PUSH1 0x20 MSTORE PUSH1 0x40 SWAP1 KECCAK256 SLOAD PUSH1 0xFF AND PUSH2 0xA86 JUMPI PUSH1 0x40 MLOAD PUSH4 0xABA47339 PUSH1 0xE0 SHL DUP2 MSTORE PUSH1 0x4 ADD PUSH1 0x40 MLOAD DUP1 SWAP2 SUB SWAP1 REVERT JUMPDEST PUSH0 PUSH2 0xA91 DUP4 DUP4 PUSH2 0xFE5 JUMP JUMPDEST PUSH0 DUP2 DUP2 MSTORE PUSH1 0x9 PUSH1 0x20 MSTORE PUSH1 0x40 SWAP1 KECCAK256 SLOAD SWAP1 SWAP2 POP PUSH1 0x1 PUSH1 0x1 PUSH1 0xA0 SHL SUB AND ISZERO PUSH2 0xACD JUMPI DUP3 DUP3 PUSH1 0x40 MLOAD PUSH4 0x2B4E2567 PUSH1 0xE0 SHL DUP2 MSTORE PUSH1 0x4 ADD PUSH2 0x637 SWAP3 SWAP2 SWAP1 PUSH2 0x180E JUMP JUMPDEST CALLER PUSH0 SWAP1 DUP2 MSTORE PUSH1 0xA PUSH1 0x20 MSTORE PUSH1 0x40 SWAP1 KECCAK256 SLOAD ISZERO PUSH2 0xB0B JUMPI CALLER PUSH0 SWAP1 DUP2 MSTORE PUSH1 0xA PUSH1 0x20 SWAP1 DUP2 MSTORE PUSH1 0x40 DUP1 DUP4 KECCAK256 SLOAD DUP4 MSTORE PUSH1 0x9 SWAP1 SWAP2 MSTORE SWAP1 KECCAK256 DUP1 SLOAD PUSH1 0x1 PUSH1 0x1 PUSH1 0xA0 SHL SUB NOT AND SWAP1 SSTORE JUMPDEST PUSH0 DUP2 DUP2 MSTORE PUSH1 0x9 PUSH1 0x20 SWAP1 DUP2 MSTORE PUSH1 0x40 DUP1 DUP4 KECCAK256 DUP1 SLOAD PUSH1 0x1 PUSH1 0x1 PUSH1 0xA0 SHL SUB NOT AND CALLER SWAP1 DUP2 OR SWAP1 SWAP2 SSTORE DUP1 DUP5 MSTORE PUSH1 0xA SWAP1 SWAP3 MSTORE SWAP2 DUP3 SWAP1 KECCAK256 DUP4 SWAP1 SSTORE SWAP1 MLOAD PUSH32 0x4AFE13536E3149CDDD8C9A8DF1580CD5E909FD13C41E7DFEAD2E38D1141DAD5D SWAP1 PUSH2 0xB6E SWAP1 DUP7 SWAP1 DUP7 SWAP1 PUSH2 0x180E JUMP JUMPDEST PUSH1 0x40 MLOAD DUP1 SWAP2 SUB SWAP1 LOG2 POP POP POP JUMP JUMPDEST PUSH0 DUP2 DUP2 MSTORE PUSH1 0x5 PUSH1 0x20 MSTORE PUSH1 0x40 SWAP1 KECCAK256 DUP1 SLOAD PUSH1 0x60 SWAP2 SWAP1 PUSH2 0xB97 SWAP1 PUSH2 0x157B JUMP JUMPDEST DUP1 PUSH1 0x1F ADD PUSH1 0x20 DUP1 SWAP2 DIV MUL PUSH1 0x20 ADD PUSH1 0x40 MLOAD SWAP1 DUP2 ADD PUSH1 0x40 MSTORE DUP1 SWAP3 SWAP2 SWAP1 DUP2 DUP2 MSTORE PUSH1 0x20 ADD DUP3 DUP1 SLOAD PUSH2 0xBC3 SWAP1 PUSH2 0x157B JUMP JUMPDEST DUP1 ISZERO PUSH2 0xC0E JUMPI DUP1 PUSH1 0x1F LT PUSH2 0xBE5 JUMPI PUSH2 0x100 DUP1 DUP4 SLOAD DIV MUL DUP4 MSTORE SWAP2 PUSH1 0x20 ADD SWAP2 PUSH2 0xC0E JUMP JUMPDEST DUP3 ADD SWAP2 SWAP1 PUSH0 MSTORE PUSH1 0x20 PUSH0 KECCAK256 SWAP1 JUMPDEST DUP2 SLOAD DUP2 MSTORE SWAP1 PUSH1 0x1 ADD SWAP1 PUSH1 0x20 ADD DUP1 DUP4 GT PUSH2 0xBF1 JUMPI DUP3 SWAP1 SUB PUSH1 0x1F AND DUP3 ADD SWAP2 JUMPDEST POP POP POP POP POP SWAP1 POP SWAP2 SWAP1 POP JUMP JUMPDEST PUSH1 0x7 PUSH1 0x20 MSTORE PUSH0 SWAP1 DUP2 MSTORE PUSH1 0x40 SWAP1 KECCAK256 DUP1 SLOAD PUSH2 0x582 SWAP1 PUSH2 0x157B JUMP JUMPDEST CALLER PUSH2 0xC50 JUMPI PUSH1 0x40 MLOAD PUSH4 0xD92E233D PUSH1 0xE0 SHL DUP2 MSTORE PUSH1 0x4 ADD PUSH1 0x40 MLOAD DUP1 SWAP2 SUB SWAP1 REVERT JUMPDEST PUSH0 DUP2 SWAP1 SUB PUSH2 0xC71 JUMPI PUSH1 0x40 MLOAD PUSH4 0x4F42BE3D PUSH1 0xE0 SHL DUP2 MSTORE PUSH1 0x4 ADD PUSH1 0x40 MLOAD DUP1 SWAP2 SUB SWAP1 REVERT JUMPDEST CALLER PUSH0 SWAP1 DUP2 MSTORE PUSH1 0x8 PUSH1 0x20 MSTORE PUSH1 0x40 SWAP1 KECCAK256 SLOAD PUSH1 0xFF AND ISZERO PUSH2 0xCA3 JUMPI PUSH1 0x40 MLOAD PUSH4 0x45ED80E9 PUSH1 0xE0 SHL DUP2 MSTORE CALLER PUSH1 0x4 DUP3 ADD MSTORE PUSH1 0x24 ADD PUSH2 0x637 JUMP JUMPDEST CALLER PUSH0 SWAP1 DUP2 MSTORE PUSH1 0x7 PUSH1 0x20 MSTORE PUSH1 0x40 SWAP1 KECCAK256 PUSH2 0xCBC DUP3 DUP5 DUP4 PUSH2 0x16FA JUMP JUMPDEST POP CALLER PUSH0 DUP2 DUP2 MSTORE PUSH1 0x8 PUSH1 0x20 MSTORE PUSH1 0x40 SWAP1 DUP2 SWAP1 KECCAK256 DUP1 SLOAD PUSH1 0xFF NOT AND PUSH1 0x1 OR SWAP1 SSTORE MLOAD PUSH32 0xB3EC32F104ACCDF61583B5B94E7B80414C5DC5845FFC42E00F5F19775A358A0A SWAP1 PUSH2 0xD08 SWAP1 DUP6 SWAP1 DUP6 SWAP1 PUSH2 0x180E JUMP JUMPDEST PUSH1 0x40 MLOAD DUP1 SWAP2 SUB SWAP1 LOG2 POP POP JUMP JUMPDEST PUSH1 0x1 PUSH1 0x1 PUSH1 0xA0 SHL SUB DUP2 AND PUSH0 SWAP1 DUP2 MSTORE PUSH1 0x7 PUSH1 0x20 MSTORE PUSH1 0x40 SWAP1 KECCAK256 DUP1 SLOAD PUSH1 0x60 SWAP2 SWAP1 PUSH2 0xB97 SWAP1 PUSH2 0x157B JUMP JUMPDEST PUSH2 0xD42 PUSH2 0x123E JUMP JUMPDEST PUSH0 SLOAD DUP3 LT PUSH2 0xD66 JUMPI PUSH1 0x40 MLOAD PUSH4 0x58A42E23 PUSH1 0xE1 SHL DUP2 MSTORE PUSH1 0x4 DUP2 ADD DUP4 SWAP1 MSTORE PUSH1 0x24 ADD PUSH2 0x637 JUMP JUMPDEST PUSH0 DUP3 DUP2 MSTORE PUSH1 0x3 PUSH1 0x20 SWAP1 DUP2 MSTORE PUSH1 0x40 SWAP2 DUP3 SWAP1 KECCAK256 DUP3 MLOAD PUSH1 0xC0 DUP2 ADD DUP5 MSTORE DUP2 SLOAD PUSH1 0x1 PUSH1 0x1 PUSH1 0xA0 SHL SUB SWAP1 DUP2 AND DUP3 MSTORE PUSH1 0x1 DUP4 ADD SLOAD AND SWAP3 DUP2 ADD SWAP3 SWAP1 SWAP3 MSTORE PUSH1 0x2 DUP2 ADD DUP1 SLOAD SWAP3 SWAP4 SWAP2 SWAP3 SWAP2 DUP5 ADD SWAP2 PUSH2 0xDB2 SWAP1 PUSH2 0x157B JUMP JUMPDEST DUP1 PUSH1 0x1F ADD PUSH1 0x20 DUP1 SWAP2 DIV MUL PUSH1 0x20 ADD PUSH1 0x40 MLOAD SWAP1 DUP2 ADD PUSH1 0x40 MSTORE DUP1 SWAP3 SWAP2 SWAP1 DUP2 DUP2 MSTORE PUSH1 0x20 ADD DUP3 DUP1 SLOAD PUSH2 0xDDE SWAP1 PUSH2 0x157B JUMP JUMPDEST DUP1 ISZERO PUSH2 0xE29 JUMPI DUP1 PUSH1 0x1F LT PUSH2 0xE00 JUMPI PUSH2 0x100 DUP1 DUP4 SLOAD DIV MUL DUP4 MSTORE SWAP2 PUSH1 0x20 ADD SWAP2 PUSH2 0xE29 JUMP JUMPDEST DUP3 ADD SWAP2 SWAP1 PUSH0 MSTORE PUSH1 0x20 PUSH0 KECCAK256 SWAP1 JUMPDEST DUP2 SLOAD DUP2 MSTORE SWAP1 PUSH1 0x1 ADD SWAP1 PUSH1 0x20 ADD DUP1 DUP4 GT PUSH2 0xE0C JUMPI DUP3 SWAP1 SUB PUSH1 0x1F AND DUP3 ADD SWAP2 JUMPDEST POP POP POP POP POP DUP2 MSTORE PUSH1 0x20 ADD PUSH1 0x3 DUP3 ADD SLOAD DUP2 MSTORE PUSH1 0x20 ADD PUSH1 0x4 DUP3 ADD SLOAD DUP2 MSTORE PUSH1 0x20 ADD PUSH1 0x5 DUP3 ADD SLOAD DUP2 MSTORE POP POP SWAP1 POP SWAP2 SWAP1 POP JUMP JUMPDEST PUSH0 PUSH0 PUSH2 0xE61 PUSH2 0x1281 JUMP JUMPDEST DUP4 ISZERO DUP1 PUSH2 0xE70 JUMPI POP PUSH1 0x1 SLOAD DUP5 LT ISZERO JUMPDEST ISZERO PUSH2 0xE91 JUMPI PUSH1 0x40 MLOAD PUSH4 0x20A5B2C9 PUSH1 0xE0 SHL DUP2 MSTORE PUSH1 0x4 DUP2 ADD DUP6 SWAP1 MSTORE PUSH1 0x24 ADD PUSH2 0x637 JUMP JUMPDEST PUSH0 DUP5 DUP2 MSTORE PUSH1 0x4 PUSH1 0x20 MSTORE PUSH1 0x40 DUP2 KECCAK256 PUSH1 0xA DUP2 ADD SLOAD PUSH1 0xB DUP3 ADD SLOAD PUSH1 0xFF SWAP1 SWAP2 AND SWAP6 POP SWAP4 POP SWAP1 JUMPDEST DUP5 PUSH1 0xFF AND DUP2 LT ISZERO PUSH2 0xFDC JUMPI PUSH1 0x3 PUSH0 DUP4 DUP4 PUSH1 0xA DUP2 LT PUSH2 0xED3 JUMPI PUSH2 0xED3 PUSH2 0x17B4 JUMP JUMPDEST ADD SLOAD DUP2 MSTORE PUSH1 0x20 DUP1 DUP3 ADD SWAP3 SWAP1 SWAP3 MSTORE PUSH1 0x40 SWAP1 DUP2 ADD PUSH0 KECCAK256 DUP2 MLOAD PUSH1 0xC0 DUP2 ADD DUP4 MSTORE DUP2 SLOAD PUSH1 0x1 PUSH1 0x1 PUSH1 0xA0 SHL SUB SWAP1 DUP2 AND DUP3 MSTORE PUSH1 0x1 DUP4 ADD SLOAD AND SWAP4 DUP2 ADD SWAP4 SWAP1 SWAP4 MSTORE PUSH1 0x2 DUP2 ADD DUP1 SLOAD SWAP2 SWAP3 DUP5 ADD SWAP2 PUSH2 0xF1F SWAP1 PUSH2 0x157B JUMP JUMPDEST DUP1 PUSH1 0x1F ADD PUSH1 0x20 DUP1 SWAP2 DIV MUL PUSH1 0x20 ADD PUSH1 0x40 MLOAD SWAP1 DUP2 ADD PUSH1 0x40 MSTORE DUP1 SWAP3 SWAP2 SWAP1 DUP2 DUP2 MSTORE PUSH1 0x20 ADD DUP3 DUP1 SLOAD PUSH2 0xF4B SWAP1 PUSH2 0x157B JUMP JUMPDEST DUP1 ISZERO PUSH2 0xF96 JUMPI DUP1 PUSH1 0x1F LT PUSH2 0xF6D JUMPI PUSH2 0x100 DUP1 DUP4 SLOAD DIV MUL DUP4 MSTORE SWAP2 PUSH1 0x20 ADD SWAP2 PUSH2 0xF96 JUMP JUMPDEST DUP3 ADD SWAP2 SWAP1 PUSH0 MSTORE PUSH1 0x20 PUSH0 KECCAK256 SWAP1 JUMPDEST DUP2 SLOAD DUP2 MSTORE SWAP1 PUSH1 0x1 ADD SWAP1 PUSH1 0x20 ADD DUP1 DUP4 GT PUSH2 0xF79 JUMPI DUP3 SWAP1 SUB PUSH1 0x1F AND DUP3 ADD SWAP2 JUMPDEST POP POP POP POP POP DUP2 MSTORE PUSH1 0x20 ADD PUSH1 0x3 DUP3 ADD SLOAD DUP2 MSTORE PUSH1 0x20 ADD PUSH1 0x4 DUP3 ADD SLOAD DUP2 MSTORE PUSH1 0x20 ADD PUSH1 0x5 DUP3 ADD SLOAD DUP2 MSTORE POP POP DUP4 DUP3 PUSH1 0xA DUP2 LT PUSH2 0xFCF JUMPI PUSH2 0xFCF PUSH2 0x17B4 JUMP JUMPDEST PUSH1 0x20 MUL ADD MSTORE PUSH1 0x1 ADD PUSH2 0xEB3 JUMP JUMPDEST POP POP SWAP2 SWAP4 SWAP1 SWAP3 POP JUMP JUMPDEST PUSH0 PUSH0 DUP4 DUP4 DUP1 DUP1 PUSH1 0x1F ADD PUSH1 0x20 DUP1 SWAP2 DIV MUL PUSH1 0x20 ADD PUSH1 0x40 MLOAD SWAP1 DUP2 ADD PUSH1 0x40 MSTORE DUP1 SWAP4 SWAP3 SWAP2 SWAP1 DUP2 DUP2 MSTORE PUSH1 0x20 ADD DUP4 DUP4 DUP1 DUP3 DUP5 CALLDATACOPY PUSH0 SWAP3 ADD SWAP2 SWAP1 SWAP2 MSTORE POP POP DUP3 MLOAD SWAP3 SWAP4 POP POP PUSH1 0x3 SWAP1 SWAP2 LT SWAP1 POP DUP1 PUSH2 0x1033 JUMPI POP PUSH1 0x20 DUP2 MLOAD GT JUMPDEST ISZERO PUSH2 0x1051 JUMPI PUSH1 0x40 MLOAD PUSH4 0xA1DE651 PUSH1 0xE3 SHL DUP2 MSTORE PUSH1 0x4 ADD PUSH1 0x40 MLOAD DUP1 SWAP2 SUB SWAP1 REVERT JUMPDEST PUSH0 DUP2 MLOAD PUSH8 0xFFFFFFFFFFFFFFFF DUP2 GT ISZERO PUSH2 0x106C JUMPI PUSH2 0x106C PUSH2 0x15DF JUMP JUMPDEST PUSH1 0x40 MLOAD SWAP1 DUP1 DUP3 MSTORE DUP1 PUSH1 0x1F ADD PUSH1 0x1F NOT AND PUSH1 0x20 ADD DUP3 ADD PUSH1 0x40 MSTORE DUP1 ISZERO PUSH2 0x1096 JUMPI PUSH1 0x20 DUP3 ADD DUP2 DUP1 CALLDATASIZE DUP4 CALLDATACOPY ADD SWAP1 POP JUMPDEST POP SWAP1 POP PUSH0 JUMPDEST DUP3 MLOAD DUP2 LT ISZERO PUSH2 0x120E JUMPI PUSH0 DUP4 DUP3 DUP2 MLOAD DUP2 LT PUSH2 0x10B7 JUMPI PUSH2 0x10B7 PUSH2 0x17B4 JUMP JUMPDEST ADD PUSH1 0x20 ADD MLOAD PUSH1 0x1 PUSH1 0x1 PUSH1 0xF8 SHL SUB NOT AND SWAP1 POP PUSH1 0x41 PUSH1 0xF8 SHL DUP2 LT DUP1 ISZERO SWAP1 PUSH2 0x10EA JUMPI POP PUSH1 0x2D PUSH1 0xF9 SHL PUSH1 0x1 PUSH1 0x1 PUSH1 0xF8 SHL SUB NOT DUP3 AND GT ISZERO JUMPDEST ISZERO PUSH2 0x112E JUMPI PUSH2 0x10FE PUSH1 0xF8 DUP3 SWAP1 SHR PUSH1 0x20 PUSH2 0x1829 JUMP JUMPDEST PUSH1 0xF8 SHL DUP4 DUP4 DUP2 MLOAD DUP2 LT PUSH2 0x1113 JUMPI PUSH2 0x1113 PUSH2 0x17B4 JUMP JUMPDEST PUSH1 0x20 ADD ADD SWAP1 PUSH1 0x1 PUSH1 0x1 PUSH1 0xF8 SHL SUB NOT AND SWAP1 DUP2 PUSH0 BYTE SWAP1 MSTORE8 POP PUSH2 0x1205 JUMP JUMPDEST PUSH1 0x61 PUSH1 0xF8 SHL PUSH1 0x1 PUSH1 0x1 PUSH1 0xF8 SHL SUB NOT DUP3 AND LT DUP1 ISZERO SWAP1 PUSH2 0x115A JUMPI POP PUSH1 0x3D PUSH1 0xF9 SHL PUSH1 0x1 PUSH1 0x1 PUSH1 0xF8 SHL SUB NOT DUP3 AND GT ISZERO JUMPDEST DUP1 PUSH2 0x118C JUMPI POP PUSH1 0x3 PUSH1 0xFC SHL PUSH1 0x1 PUSH1 0x1 PUSH1 0xF8 SHL SUB NOT DUP3 AND LT DUP1 ISZERO SWAP1 PUSH2 0x118C JUMPI POP PUSH1 0x39 PUSH1 0xF8 SHL PUSH1 0x1 PUSH1 0x1 PUSH1 0xF8 SHL SUB NOT DUP3 AND GT ISZERO JUMPDEST DUP1 PUSH2 0x11A4 JUMPI POP PUSH1 0x17 PUSH1 0xF9 SHL PUSH1 0x1 PUSH1 0x1 PUSH1 0xF8 SHL SUB NOT DUP3 AND EQ JUMPDEST DUP1 PUSH2 0x11BC JUMPI POP PUSH1 0x2D PUSH1 0xF8 SHL PUSH1 0x1 PUSH1 0x1 PUSH1 0xF8 SHL SUB NOT DUP3 AND EQ JUMPDEST DUP1 PUSH2 0x11D4 JUMPI POP PUSH1 0x5F PUSH1 0xF8 SHL PUSH1 0x1 PUSH1 0x1 PUSH1 0xF8 SHL SUB NOT DUP3 AND EQ JUMPDEST ISZERO PUSH2 0x11EC JUMPI DUP1 DUP4 DUP4 DUP2 MLOAD DUP2 LT PUSH2 0x1113 JUMPI PUSH2 0x1113 PUSH2 0x17B4 JUMP JUMPDEST PUSH1 0x40 MLOAD PUSH4 0xA1DE651 PUSH1 0xE3 SHL DUP2 MSTORE PUSH1 0x4 ADD PUSH1 0x40 MLOAD DUP1 SWAP2 SUB SWAP1 REVERT JUMPDEST POP PUSH1 0x1 ADD PUSH2 0x109B JUMP JUMPDEST POP DUP1 MLOAD PUSH1 0x20 SWAP1 SWAP2 ADD KECCAK256 SWAP5 SWAP4 POP POP POP POP JUMP JUMPDEST PUSH1 0x40 MLOAD DUP1 PUSH2 0x140 ADD PUSH1 0x40 MSTORE DUP1 PUSH1 0xA SWAP1 PUSH1 0x20 DUP3 MUL DUP1 CALLDATASIZE DUP4 CALLDATACOPY POP SWAP2 SWAP3 SWAP2 POP POP JUMP JUMPDEST PUSH1 0x40 MLOAD DUP1 PUSH1 0xC0 ADD PUSH1 0x40 MSTORE DUP1 PUSH0 PUSH1 0x1 PUSH1 0x1 PUSH1 0xA0 SHL SUB AND DUP2 MSTORE PUSH1 0x20 ADD PUSH0 PUSH1 0x1 PUSH1 0x1 PUSH1 0xA0 SHL SUB AND DUP2 MSTORE PUSH1 0x20 ADD PUSH1 0x60 DUP2 MSTORE PUSH1 0x20 ADD PUSH0 DUP2 MSTORE PUSH1 0x20 ADD PUSH0 DUP2 MSTORE PUSH1 0x20 ADD PUSH0 DUP2 MSTORE POP SWAP1 JUMP JUMPDEST PUSH1 0x40 MLOAD DUP1 PUSH2 0x140 ADD PUSH1 0x40 MSTORE DUP1 PUSH1 0xA SWAP1 JUMPDEST PUSH2 0x1299 PUSH2 0x123E JUMP JUMPDEST DUP2 MSTORE PUSH1 0x20 ADD SWAP1 PUSH1 0x1 SWAP1 SUB SWAP1 DUP2 PUSH2 0x1291 JUMPI SWAP1 POP POP SWAP1 JUMP JUMPDEST PUSH0 PUSH0 DUP4 PUSH1 0x1F DUP5 ADD SLT PUSH2 0x12BF JUMPI PUSH0 PUSH0 REVERT JUMPDEST POP DUP2 CALLDATALOAD PUSH8 0xFFFFFFFFFFFFFFFF DUP2 GT ISZERO PUSH2 0x12D6 JUMPI PUSH0 PUSH0 REVERT JUMPDEST PUSH1 0x20 DUP4 ADD SWAP2 POP DUP4 PUSH1 0x20 DUP3 DUP6 ADD ADD GT ISZERO PUSH2 0x12ED JUMPI PUSH0 PUSH0 REVERT JUMPDEST SWAP3 POP SWAP3 SWAP1 POP JUMP JUMPDEST PUSH0 PUSH0 PUSH1 0x20 DUP4 DUP6 SUB SLT ISZERO PUSH2 0x1305 JUMPI PUSH0 PUSH0 REVERT JUMPDEST DUP3 CALLDATALOAD PUSH8 0xFFFFFFFFFFFFFFFF DUP2 GT ISZERO PUSH2 0x131B JUMPI PUSH0 PUSH0 REVERT JUMPDEST PUSH2 0x1327 DUP6 DUP3 DUP7 ADD PUSH2 0x12AF JUMP JUMPDEST SWAP1 SWAP7 SWAP1 SWAP6 POP SWAP4 POP POP POP POP JUMP JUMPDEST PUSH0 PUSH1 0x20 DUP3 DUP5 SUB SLT ISZERO PUSH2 0x1343 JUMPI PUSH0 PUSH0 REVERT JUMPDEST POP CALLDATALOAD SWAP2 SWAP1 POP JUMP JUMPDEST PUSH0 DUP2 MLOAD DUP1 DUP5 MSTORE DUP1 PUSH1 0x20 DUP5 ADD PUSH1 0x20 DUP7 ADD MCOPY PUSH0 PUSH1 0x20 DUP3 DUP7 ADD ADD MSTORE PUSH1 0x20 PUSH1 0x1F NOT PUSH1 0x1F DUP4 ADD AND DUP6 ADD ADD SWAP2 POP POP SWAP3 SWAP2 POP POP JUMP JUMPDEST PUSH1 0x1 PUSH1 0x1 PUSH1 0xA0 SHL SUB DUP8 DUP2 AND DUP3 MSTORE DUP7 AND PUSH1 0x20 DUP3 ADD MSTORE PUSH1 0xC0 PUSH1 0x40 DUP3 ADD DUP2 SWAP1 MSTORE PUSH0 SWAP1 PUSH2 0x13A3 SWAP1 DUP4 ADD DUP8 PUSH2 0x134A JUMP JUMPDEST PUSH1 0x60 DUP4 ADD SWAP6 SWAP1 SWAP6 MSTORE POP PUSH1 0x80 DUP2 ADD SWAP3 SWAP1 SWAP3 MSTORE PUSH1 0xA0 SWAP1 SWAP2 ADD MSTORE SWAP4 SWAP3 POP POP POP JUMP JUMPDEST PUSH1 0x20 DUP2 MSTORE PUSH0 PUSH2 0x13D3 PUSH1 0x20 DUP4 ADD DUP5 PUSH2 0x134A JUMP JUMPDEST SWAP4 SWAP3 POP POP POP JUMP JUMPDEST PUSH2 0x180 DUP2 ADD DUP2 DUP6 PUSH0 JUMPDEST PUSH1 0xA DUP2 LT ISZERO PUSH2 0x1402 JUMPI DUP2 MLOAD DUP4 MSTORE PUSH1 0x20 SWAP3 DUP4 ADD SWAP3 SWAP1 SWAP2 ADD SWAP1 PUSH1 0x1 ADD PUSH2 0x13E3 JUMP JUMPDEST POP POP POP PUSH1 0xFF SWAP4 SWAP1 SWAP4 AND PUSH2 0x140 DUP3 ADD MSTORE PUSH2 0x160 ADD MSTORE SWAP2 SWAP1 POP JUMP JUMPDEST DUP1 CALLDATALOAD PUSH1 0x1 PUSH1 0x1 PUSH1 0xA0 SHL SUB DUP2 AND DUP2 EQ PUSH2 0x1431 JUMPI PUSH0 PUSH0 REVERT JUMPDEST SWAP2 SWAP1 POP JUMP JUMPDEST PUSH0 PUSH0 PUSH0 PUSH0 PUSH1 0x60 DUP6 DUP8 SUB SLT ISZERO PUSH2 0x1449 JUMPI PUSH0 PUSH0 REVERT JUMPDEST PUSH2 0x1452 DUP6 PUSH2 0x141B JUMP JUMPDEST SWAP4 POP PUSH1 0x20 DUP6 ADD CALLDATALOAD PUSH8 0xFFFFFFFFFFFFFFFF DUP2 GT ISZERO PUSH2 0x146D JUMPI PUSH0 PUSH0 REVERT JUMPDEST PUSH2 0x1479 DUP8 DUP3 DUP9 ADD PUSH2 0x12AF JUMP JUMPDEST SWAP6 SWAP9 SWAP1 SWAP8 POP SWAP5 SWAP6 PUSH1 0x40 ADD CALLDATALOAD SWAP5 SWAP4 POP POP POP POP JUMP JUMPDEST PUSH0 PUSH1 0x20 DUP3 DUP5 SUB SLT ISZERO PUSH2 0x149C JUMPI PUSH0 PUSH0 REVERT JUMPDEST PUSH2 0x13D3 DUP3 PUSH2 0x141B JUMP JUMPDEST PUSH1 0x1 DUP1 PUSH1 0xA0 SHL SUB DUP2 MLOAD AND DUP3 MSTORE PUSH1 0x1 DUP1 PUSH1 0xA0 SHL SUB PUSH1 0x20 DUP3 ADD MLOAD AND PUSH1 0x20 DUP4 ADD MSTORE PUSH0 PUSH1 0x40 DUP3 ADD MLOAD PUSH1 0xC0 PUSH1 0x40 DUP6 ADD MSTORE PUSH2 0x14DD PUSH1 0xC0 DUP6 ADD DUP3 PUSH2 0x134A JUMP JUMPDEST SWAP1 POP PUSH1 0x60 DUP4 ADD MLOAD PUSH1 0x60 DUP6 ADD MSTORE PUSH1 0x80 DUP4 ADD MLOAD PUSH1 0x80 DUP6 ADD MSTORE PUSH1 0xA0 DUP4 ADD MLOAD PUSH1 0xA0 DUP6 ADD MSTORE DUP1 SWAP2 POP POP SWAP3 SWAP2 POP POP JUMP JUMPDEST PUSH1 0x20 DUP2 MSTORE PUSH0 PUSH2 0x13D3 PUSH1 0x20 DUP4 ADD DUP5 PUSH2 0x14A5 JUMP JUMPDEST PUSH1 0xFF DUP5 AND DUP2 MSTORE PUSH1 0x20 DUP2 ADD DUP4 SWAP1 MSTORE PUSH1 0x60 PUSH1 0x40 DUP3 ADD DUP2 SWAP1 MSTORE PUSH0 SWAP1 PUSH2 0x1A0 DUP4 ADD SWAP1 DUP4 ADD DUP5 DUP4 JUMPDEST PUSH1 0xA DUP2 LT ISZERO PUSH2 0x156E JUMPI PUSH1 0x5F NOT DUP7 DUP6 SUB ADD DUP4 MSTORE PUSH2 0x1559 DUP5 DUP4 MLOAD PUSH2 0x14A5 JUMP JUMPDEST SWAP4 POP PUSH1 0x20 SWAP3 DUP4 ADD SWAP3 SWAP2 SWAP1 SWAP2 ADD SWAP1 PUSH1 0x1 ADD PUSH2 0x153C JUMP JUMPDEST POP SWAP2 SWAP8 SWAP7 POP POP POP POP POP POP POP JUMP JUMPDEST PUSH1 0x1 DUP2 DUP2 SHR SWAP1 DUP3 AND DUP1 PUSH2 0x158F JUMPI PUSH1 0x7F DUP3 AND SWAP2 POP JUMPDEST PUSH1 0x20 DUP3 LT DUP2 SUB PUSH2 0x15AD JUMPI PUSH4 0x4E487B71 PUSH1 0xE0 SHL PUSH0 MSTORE PUSH1 0x22 PUSH1 0x4 MSTORE PUSH1 0x24 PUSH0 REVERT JUMPDEST POP SWAP2 SWAP1 POP JUMP JUMPDEST PUSH4 0x4E487B71 PUSH1 0xE0 SHL PUSH0 MSTORE PUSH1 0x11 PUSH1 0x4 MSTORE PUSH1 0x24 PUSH0 REVERT JUMPDEST PUSH0 PUSH1 0x1 DUP3 ADD PUSH2 0x15D8 JUMPI PUSH2 0x15D8 PUSH2 0x15B3 JUMP JUMPDEST POP PUSH1 0x1 ADD SWAP1 JUMP JUMPDEST PUSH4 0x4E487B71 PUSH1 0xE0 SHL PUSH0 MSTORE PUSH1 0x41 PUSH1 0x4 MSTORE PUSH1 0x24 PUSH0 REVERT JUMPDEST PUSH1 0x1F DUP3 GT ISZERO PUSH2 0x163A JUMPI DUP1 PUSH0 MSTORE PUSH1 0x20 PUSH0 KECCAK256 PUSH1 0x1F DUP5 ADD PUSH1 0x5 SHR DUP2 ADD PUSH1 0x20 DUP6 LT ISZERO PUSH2 0x1618 JUMPI POP DUP1 JUMPDEST PUSH1 0x1F DUP5 ADD PUSH1 0x5 SHR DUP3 ADD SWAP2 POP JUMPDEST DUP2 DUP2 LT ISZERO PUSH2 0x1637 JUMPI PUSH0 DUP2 SSTORE PUSH1 0x1 ADD PUSH2 0x1624 JUMP JUMPDEST POP POP JUMPDEST POP POP POP JUMP JUMPDEST DUP2 MLOAD PUSH8 0xFFFFFFFFFFFFFFFF DUP2 GT ISZERO PUSH2 0x1659 JUMPI PUSH2 0x1659 PUSH2 0x15DF JUMP JUMPDEST PUSH2 0x166D DUP2 PUSH2 0x1667 DUP5 SLOAD PUSH2 0x157B JUMP JUMPDEST DUP5 PUSH2 0x15F3 JUMP JUMPDEST PUSH1 0x20 PUSH1 0x1F DUP3 GT PUSH1 0x1 DUP2 EQ PUSH2 0x169F JUMPI PUSH0 DUP4 ISZERO PUSH2 0x1688 JUMPI POP DUP5 DUP3 ADD MLOAD JUMPDEST PUSH0 NOT PUSH1 0x3 DUP6 SWAP1 SHL SHR NOT AND PUSH1 0x1 DUP5 SWAP1 SHL OR DUP5 SSTORE PUSH2 0x1637 JUMP JUMPDEST PUSH0 DUP5 DUP2 MSTORE PUSH1 0x20 DUP2 KECCAK256 PUSH1 0x1F NOT DUP6 AND SWAP2 JUMPDEST DUP3 DUP2 LT ISZERO PUSH2 0x16CE JUMPI DUP8 DUP6 ADD MLOAD DUP3 SSTORE PUSH1 0x20 SWAP5 DUP6 ADD SWAP5 PUSH1 0x1 SWAP1 SWAP3 ADD SWAP2 ADD PUSH2 0x16AE JUMP JUMPDEST POP DUP5 DUP3 LT ISZERO PUSH2 0x16EB JUMPI DUP7 DUP5 ADD MLOAD PUSH0 NOT PUSH1 0x3 DUP8 SWAP1 SHL PUSH1 0xF8 AND SHR NOT AND DUP2 SSTORE JUMPDEST POP POP POP POP PUSH1 0x1 SWAP1 DUP2 SHL ADD SWAP1 SSTORE POP JUMP JUMPDEST PUSH8 0xFFFFFFFFFFFFFFFF DUP4 GT ISZERO PUSH2 0x1712 JUMPI PUSH2 0x1712 PUSH2 0x15DF JUMP JUMPDEST PUSH2 0x1726 DUP4 PUSH2 0x1720 DUP4 SLOAD PUSH2 0x157B JUMP JUMPDEST DUP4 PUSH2 0x15F3 JUMP JUMPDEST PUSH0 PUSH1 0x1F DUP5 GT PUSH1 0x1 DUP2 EQ PUSH2 0x1757 JUMPI PUSH0 DUP6 ISZERO PUSH2 0x1740 JUMPI POP DUP4 DUP3 ADD CALLDATALOAD JUMPDEST PUSH0 NOT PUSH1 0x3 DUP8 SWAP1 SHL SHR NOT AND PUSH1 0x1 DUP7 SWAP1 SHL OR DUP4 SSTORE PUSH2 0x1637 JUMP JUMPDEST PUSH0 DUP4 DUP2 MSTORE PUSH1 0x20 DUP2 KECCAK256 PUSH1 0x1F NOT DUP8 AND SWAP2 JUMPDEST DUP3 DUP2 LT ISZERO PUSH2 0x1786 JUMPI DUP7 DUP6 ADD CALLDATALOAD DUP3 SSTORE PUSH1 0x20 SWAP5 DUP6 ADD SWAP5 PUSH1 0x1 SWAP1 SWAP3 ADD SWAP2 ADD PUSH2 0x1766 JUMP JUMPDEST POP DUP7 DUP3 LT ISZERO PUSH2 0x17A2 JUMPI PUSH0 NOT PUSH1 0xF8 DUP9 PUSH1 0x3 SHL AND SHR NOT DUP5 DUP8 ADD CALLDATALOAD AND DUP2 SSTORE JUMPDEST POP POP PUSH1 0x1 DUP6 PUSH1 0x1 SHL ADD DUP4 SSTORE POP POP POP POP POP JUMP JUMPDEST PUSH4 0x4E487B71 PUSH1 0xE0 SHL PUSH0 MSTORE PUSH1 0x32 PUSH1 0x4 MSTORE PUSH1 0x24 PUSH0 REVERT JUMPDEST PUSH0 PUSH1 0xFF DUP3 AND PUSH1 0xFF DUP2 SUB PUSH2 0x17DD JUMPI PUSH2 0x17DD PUSH2 0x15B3 JUMP JUMPDEST PUSH1 0x1 ADD SWAP3 SWAP2 POP POP JUMP JUMPDEST DUP2 DUP4 MSTORE DUP2 DUP2 PUSH1 0x20 DUP6 ADD CALLDATACOPY POP PUSH0 DUP3 DUP3 ADD PUSH1 0x20 SWAP1 DUP2 ADD SWAP2 SWAP1 SWAP2 MSTORE PUSH1 0x1F SWAP1 SWAP2 ADD PUSH1 0x1F NOT AND SWAP1 SWAP2 ADD ADD SWAP1 JUMP JUMPDEST PUSH1 0x20 DUP2 MSTORE PUSH0 PUSH2 0x1821 PUSH1 0x20 DUP4 ADD DUP5 DUP7 PUSH2 0x17E6 JUMP JUMPDEST SWAP5 SWAP4 POP POP POP POP JUMP JUMPDEST PUSH1 0xFF DUP2 DUP2 AND DUP4 DUP3 AND ADD SWAP1 DUP2 GT ISZERO PUSH2 0x49D JUMPI PUSH2 0x49D PUSH2 0x15B3 JUMP INVALID LOG2 PUSH5 0x6970667358 0x22 SLT KECCAK256 0xEE SWAP11 PUSH19 0x5C7D1A73605F274BC8ADBC4589EF406809EC9 PUSH23 0x9D796B0443136F3A8564736F6C634300081C0033000000 "},"methodIdentifiers":{"CIPHER_TEXT_INLINE_MAX()":"8a602ce8","MESSAGES_PER_PAGE()":"8803d054","PREV_PAGE_NONE()":"778f10a3","addressToUsername(address)":"e07a0baa","encryptionPublicKeys(address)":"570b0257","getAddressForUsername(string)":"095a0535","getLargeCiphertext(uint256)":"3f4e7d25","getMessage(uint256)":"86f79edb","getPage(uint256)":"137a3c96","getPageWithMessages(uint256)":"a0f0438a","getPublicKey(address)":"857cdbb8","getRecipientHeadPageId(address)":"ea040c60","getUsernameHash(address)":"522cf1e0","hasRegisteredKey(address)":"6e6d5d64","isRegistered(address)":"c3c5a547","largeCiphertexts(uint256)":"0fb8fa1e","messages(uint256)":"0d80fefd","nextCiphertextRefId()":"03aa6fa9","nextMessageId()":"eefbf17e","nextPageId()":"a1fb277f","pages(uint256)":"5c3e9cc2","recipientHeadPageId(address)":"aba56271","registerPublicKey(bytes)":"85623594","registerUsername(string)":"36a94134","sendMessage(address,bytes,bytes32)":"2c4ac770","usernameToAddress(bytes32)":"2fdf15d5"}}}}}